{
  "contractName": "Patient",
  "abi": [
    {
      "inputs": [],
      "payable": false,
      "stateMutability": "nonpayable",
      "type": "constructor",
      "signature": "constructor"
    },
    {
      "constant": false,
      "inputs": [
        {
          "name": "_fileHash",
          "type": "string"
        }
      ],
      "name": "set",
      "outputs": [],
      "payable": false,
      "stateMutability": "nonpayable",
      "type": "function",
      "signature": "0x4ed3885e"
    },
    {
      "constant": true,
      "inputs": [
        {
          "name": "_accessCode",
          "type": "uint256"
        }
      ],
      "name": "get",
      "outputs": [
        {
          "name": "",
          "type": "string[]"
        }
      ],
      "payable": false,
      "stateMutability": "view",
      "type": "function",
      "signature": "0x9507d39a"
    },
    {
      "constant": true,
      "inputs": [],
      "name": "getAccessCode",
      "outputs": [
        {
          "name": "",
          "type": "uint256"
        }
      ],
      "payable": false,
      "stateMutability": "view",
      "type": "function",
      "signature": "0x20a47fe0"
    },
    {
      "constant": true,
      "inputs": [],
      "name": "getOwnerAddress",
      "outputs": [
        {
          "name": "",
          "type": "address"
        }
      ],
      "payable": false,
      "stateMutability": "view",
      "type": "function",
      "signature": "0x0c4f65bd"
    },
    {
      "constant": false,
      "inputs": [
        {
          "name": "_accessCode",
          "type": "uint256"
        }
      ],
      "name": "changeAccessCode",
      "outputs": [],
      "payable": false,
      "stateMutability": "nonpayable",
      "type": "function",
      "signature": "0x9483cdd1"
    }
  ],
  "bytecode": "0x608060405234801561001057600080fd5b50336000806101000a81548173ffffffffffffffffffffffffffffffffffffffff021916908373ffffffffffffffffffffffffffffffffffffffff1602179055506108cf6001819055506107a8806100696000396000f3fe60806040526004361061006d576000357c0100000000000000000000000000000000000000000000000000000000900463ffffffff1680630c4f65bd1461007257806320a47fe01461009d5780634ed3885e146100c85780639483cdd1146100f15780639507d39a1461011a575b600080fd5b34801561007e57600080fd5b50610087610157565b60405161009491906105d4565b60405180910390f35b3480156100a957600080fd5b506100b2610180565b6040516100bf9190610631565b60405180910390f35b3480156100d457600080fd5b506100ef60048036036100ea9190810190610471565b61018a565b005b3480156100fd57600080fd5b50610118600480360361011391908101906104b2565b6101cc565b005b34801561012657600080fd5b50610141600480360361013c91908101906104b2565b610231565b60405161014e91906105ef565b60405180910390f35b60008060009054906101000a900473ffffffffffffffffffffffffffffffffffffffff16905090565b6000600154905090565b60028190806001815401808255809150509060018203906000526020600020016000909192909190915090805190602001906101c7929190610362565b505050565b6000809054906101000a900473ffffffffffffffffffffffffffffffffffffffff1673ffffffffffffffffffffffffffffffffffffffff163373ffffffffffffffffffffffffffffffffffffffff1614151561022757600080fd5b8060018190555050565b606081600154141515610279576040517f08c379a000000000000000000000000000000000000000000000000000000000815260040161027090610611565b60405180910390fd5b6002805480602002602001604051908101604052809291908181526020016000905b82821015610357578382906000526020600020018054600181600116156101000203166002900480601f0160208091040260200160405190810160405280929190818152602001828054600181600116156101000203166002900480156103435780601f1061031857610100808354040283529160200191610343565b820191906000526020600020905b81548152906001019060200180831161032657829003601f168201915b50505050508152602001906001019061029b565b505050509050919050565b828054600181600116156101000203166002900490600052602060002090601f016020900481019282601f106103a357805160ff19168380011785556103d1565b828001600101855582156103d1579182015b828111156103d05782518255916020019190600101906103b5565b5b5090506103de91906103e2565b5090565b61040491905b808211156104005760008160009055506001016103e8565b5090565b90565b600082601f830112151561041a57600080fd5b813561042d61042882610679565b61064c565b9150808252602083016020830185838301111561044957600080fd5b61045483828461071b565b50505092915050565b60006104698235610711565b905092915050565b60006020828403121561048357600080fd5b600082013567ffffffffffffffff81111561049d57600080fd5b6104a984828501610407565b91505092915050565b6000602082840312156104c457600080fd5b60006104d28482850161045d565b91505092915050565b6104e4816106d5565b82525050565b60006104f5826106b2565b8084526020840193508360208202850161050e856106a5565b60005b84811015610547578383038852610529838351610558565b9250610534826106c8565b9150602088019750600181019050610511565b508196508694505050505092915050565b6000610563826106bd565b80845261057781602086016020860161072a565b6105808161075d565b602085010191505092915050565b6000601682527f53656e646572206e6f7420617574686f72697a65642e000000000000000000006020830152604082019050919050565b6105ce81610707565b82525050565b60006020820190506105e960008301846104db565b92915050565b6000602082019050818103600083015261060981846104ea565b905092915050565b6000602082019050818103600083015261062a8161058e565b9050919050565b600060208201905061064660008301846105c5565b92915050565b6000604051905081810181811067ffffffffffffffff8211171561066f57600080fd5b8060405250919050565b600067ffffffffffffffff82111561069057600080fd5b601f19601f8301169050602081019050919050565b6000602082019050919050565b600081519050919050565b600081519050919050565b6000602082019050919050565b60006106e0826106e7565b9050919050565b600073ffffffffffffffffffffffffffffffffffffffff82169050919050565b6000819050919050565b6000819050919050565b82818337600083830152505050565b60005b8381101561074857808201518184015260208101905061072d565b83811115610757576000848401525b50505050565b6000601f19601f830116905091905056fea265627a7a72305820b6a42bf09e46b0552cb8d9f7cb92a5c04344f73b56bdd4709ed8bc7274d16a876c6578706572696d656e74616cf50037",
  "source": "pragma solidity 0.5.0;\npragma experimental ABIEncoderV2;\n// Experimental (string[]) - Do not use experimental features on live deployments.\n\ncontract Patient {\n    address owner;\n    uint256 accessCode;\n    string[] fileHash;\n\n    constructor() public {\n        // Owner of contract\n        owner = msg.sender;\n        accessCode = 2255;\n\n    }\n\n    // checks whether the address(msg.sender) is same with owner address defined on contract.\n    modifier onlyOwner() {\n        require(msg.sender == owner);\n        _;\n    }\n\n    function set(string memory _fileHash) public {\n        fileHash.push(_fileHash);\n    }\n\n    function get(uint256 _accessCode) public view returns (string[] memory) {\n        require(accessCode == _accessCode, \"Sender not authorized.\");\n        return fileHash;\n    }\n\n    function getAccessCode() public view returns (uint256) {\n        return accessCode;\n    }\n\n    function getOwnerAddress() public view returns (address) {\n        return owner;\n    }\n\n    function changeAccessCode(uint256 _accessCode) public onlyOwner {\n        accessCode = _accessCode;\n    }\n}\n",
  "sourcePath": "/Users/vithu/Documents/projects/app-bhc/src/contracts/Patient.sol",
  "compiler": {
    "name": "solc",
    "version": "0.5.0+commit.1d4f565a.Emscripten.clang"
  },
  "schemaVersion": "3.0.1",
  "updatedAt": "2020-03-19T00:31:06.992Z",
  "devdoc": {
    "methods": {}
  },
  "userdoc": {
    "methods": {}
  }
}