{
  "contractName": "Patient",
  "abi": [
    {
      "inputs": [],
      "payable": false,
      "stateMutability": "nonpayable",
      "type": "constructor",
      "signature": "constructor"
    },
    {
      "constant": false,
      "inputs": [
        {
          "name": "_fileHash",
          "type": "string"
        }
      ],
      "name": "set",
      "outputs": [],
      "payable": false,
      "stateMutability": "nonpayable",
      "type": "function",
      "signature": "0x4ed3885e"
    },
    {
      "constant": true,
      "inputs": [
        {
          "name": "_accessCode",
          "type": "uint256"
        }
      ],
      "name": "get",
      "outputs": [
        {
          "name": "",
          "type": "string[]"
        }
      ],
      "payable": false,
      "stateMutability": "view",
      "type": "function",
      "signature": "0x9507d39a"
    },
    {
      "constant": true,
      "inputs": [],
      "name": "getAccessCode",
      "outputs": [
        {
          "name": "",
          "type": "uint256"
        }
      ],
      "payable": false,
      "stateMutability": "view",
      "type": "function",
      "signature": "0x20a47fe0"
    },
    {
      "constant": false,
      "inputs": [
        {
          "name": "_accessCode",
          "type": "uint256"
        }
      ],
      "name": "changeAccessCode",
      "outputs": [],
      "payable": false,
      "stateMutability": "nonpayable",
      "type": "function",
      "signature": "0x9483cdd1"
    }
  ],
  "bytecode": "0x608060405234801561001057600080fd5b50336000806101000a81548173ffffffffffffffffffffffffffffffffffffffff021916908373ffffffffffffffffffffffffffffffffffffffff1602179055506168a9600181905550610831806100696000396000f3fe608060405260043610610062576000357c0100000000000000000000000000000000000000000000000000000000900463ffffffff16806320a47fe0146100675780634ed3885e146100925780639483cdd1146100bb5780639507d39a146100e4575b600080fd5b34801561007357600080fd5b5061007c610121565b60405161008991906106ec565b60405180910390f35b34801561009e57600080fd5b506100b960048036036100b491908101906104d9565b6101bc565b005b3480156100c757600080fd5b506100e260048036036100dd919081019061051a565b6101fe565b005b3480156100f057600080fd5b5061010b6004803603610106919081019061051a565b610299565b604051610118919061068a565b60405180910390f35b60008060009054906101000a900473ffffffffffffffffffffffffffffffffffffffff1673ffffffffffffffffffffffffffffffffffffffff163373ffffffffffffffffffffffffffffffffffffffff161415156101b4576040517f08c379a00000000000000000000000000000000000000000000000000000000081526004016101ab906106cc565b60405180910390fd5b600154905090565b60028190806001815401808255809150509060018203906000526020600020016000909192909190915090805190602001906101f99291906103ca565b505050565b6000809054906101000a900473ffffffffffffffffffffffffffffffffffffffff1673ffffffffffffffffffffffffffffffffffffffff163373ffffffffffffffffffffffffffffffffffffffff1614151561028f576040517f08c379a0000000000000000000000000000000000000000000000000000000008152600401610286906106cc565b60405180910390fd5b8060018190555050565b6060816001541415156102e1576040517f08c379a00000000000000000000000000000000000000000000000000000000081526004016102d8906106ac565b60405180910390fd5b6002805480602002602001604051908101604052809291908181526020016000905b828210156103bf578382906000526020600020018054600181600116156101000203166002900480601f0160208091040260200160405190810160405280929190818152602001828054600181600116156101000203166002900480156103ab5780601f10610380576101008083540402835291602001916103ab565b820191906000526020600020905b81548152906001019060200180831161038e57829003601f168201915b505050505081526020019060010190610303565b505050509050919050565b828054600181600116156101000203166002900490600052602060002090601f016020900481019282601f1061040b57805160ff1916838001178555610439565b82800160010185558215610439579182015b8281111561043857825182559160200191906001019061041d565b5b509050610446919061044a565b5090565b61046c91905b80821115610468576000816000905550600101610450565b5090565b90565b600082601f830112151561048257600080fd5b813561049561049082610734565b610707565b915080825260208301602083018583830111156104b157600080fd5b6104bc8382846107a4565b50505092915050565b60006104d1823561079a565b905092915050565b6000602082840312156104eb57600080fd5b600082013567ffffffffffffffff81111561050557600080fd5b6105118482850161046f565b91505092915050565b60006020828403121561052c57600080fd5b600061053a848285016104c5565b91505092915050565b600061054e8261076d565b8084526020840193508360208202850161056785610760565b60005b848110156105a05783830388526105828383516105b1565b925061058d82610783565b915060208801975060018101905061056a565b508196508694505050505092915050565b60006105bc82610778565b8084526105d08160208601602086016107b3565b6105d9816107e6565b602085010191505092915050565b6000601482527f55736572206e6f7420617574686f72697a65642e0000000000000000000000006020830152604082019050919050565b6000603682527f4f6e6c79206f776e6572206f662074686520636f6e747261637420697320616260208301527f6c6520746f206d6f646966792074686520646174612e000000000000000000006040830152606082019050919050565b61068481610790565b82525050565b600060208201905081810360008301526106a48184610543565b905092915050565b600060208201905081810360008301526106c5816105e7565b9050919050565b600060208201905081810360008301526106e58161061e565b9050919050565b6000602082019050610701600083018461067b565b92915050565b6000604051905081810181811067ffffffffffffffff8211171561072a57600080fd5b8060405250919050565b600067ffffffffffffffff82111561074b57600080fd5b601f19601f8301169050602081019050919050565b6000602082019050919050565b600081519050919050565b600081519050919050565b6000602082019050919050565b6000819050919050565b6000819050919050565b82818337600083830152505050565b60005b838110156107d15780820151818401526020810190506107b6565b838111156107e0576000848401525b50505050565b6000601f19601f830116905091905056fea265627a7a723058208ad7d134ae58df8e50213253af7f76ad28a42b43281bb8ccf86d8b1aa175283e6c6578706572696d656e74616cf50037",
  "source": "pragma solidity 0.5.0;\npragma experimental ABIEncoderV2;\n// Experimental (string[]) - Do not use experimental features on live deployments.\n\ncontract Patient {\n    address owner;\n    uint accessCode;\n    string[] fileHash;\n\n    constructor() public {\n        // Owner of contract\n        owner = msg.sender;\n        accessCode = 26793;\n\n    }\n\n    // checks whether the address(msg.sender) is same with owner address defined on contract.\n    modifier onlyOwner() {\n        require(msg.sender == owner, \"Only owner of the contract is able to modify the data.\");\n        _;\n    }\n\n    function set(string memory _fileHash) public {\n        fileHash.push(_fileHash);\n    }\n\n    function get(uint _accessCode) public view returns (string[] memory) {\n        require(accessCode == _accessCode, \"User not authorized.\");\n        return fileHash;\n    }\n\n    function getAccessCode() public onlyOwner view returns (uint) {\n        return accessCode;\n    }\n\n    function changeAccessCode(uint _accessCode) public onlyOwner {\n        accessCode = _accessCode;\n    }\n}\n",
  "sourcePath": "/Users/vithu/Documents/projects/app-bhc/src/contracts/Patient.sol",
  "compiler": {
    "name": "solc",
    "version": "0.5.0+commit.1d4f565a.Emscripten.clang"
  },
  "schemaVersion": "3.0.1",
  "updatedAt": "2020-03-19T22:27:50.277Z",
  "devdoc": {
    "methods": {}
  },
  "userdoc": {
    "methods": {}
  }
}