{
  "contractName": "Patient",
  "abi": [
    {
      "inputs": [],
      "payable": false,
      "stateMutability": "nonpayable",
      "type": "constructor",
      "signature": "constructor"
    },
    {
      "constant": false,
      "inputs": [
        {
          "name": "_fileHash",
          "type": "string"
        }
      ],
      "name": "set",
      "outputs": [],
      "payable": false,
      "stateMutability": "nonpayable",
      "type": "function",
      "signature": "0x4ed3885e"
    },
    {
      "constant": true,
      "inputs": [],
      "name": "get",
      "outputs": [
        {
          "name": "",
          "type": "string[]"
        }
      ],
      "payable": false,
      "stateMutability": "view",
      "type": "function",
      "signature": "0x6d4ce63c"
    },
    {
      "constant": true,
      "inputs": [],
      "name": "getAccessCode",
      "outputs": [
        {
          "name": "",
          "type": "uint256"
        }
      ],
      "payable": false,
      "stateMutability": "view",
      "type": "function",
      "signature": "0x20a47fe0"
    },
    {
      "constant": true,
      "inputs": [],
      "name": "getOwnerAddress",
      "outputs": [
        {
          "name": "",
          "type": "address"
        }
      ],
      "payable": false,
      "stateMutability": "view",
      "type": "function",
      "signature": "0x0c4f65bd"
    },
    {
      "constant": false,
      "inputs": [
        {
          "name": "_accessCode",
          "type": "uint256"
        }
      ],
      "name": "changeAccessCode",
      "outputs": [],
      "payable": false,
      "stateMutability": "nonpayable",
      "type": "function",
      "signature": "0x9483cdd1"
    }
  ],
  "bytecode": "0x608060405234801561001057600080fd5b50336000806101000a81548173ffffffffffffffffffffffffffffffffffffffff021916908373ffffffffffffffffffffffffffffffffffffffff1602179055506108cf6001819055506106f7806100696000396000f3fe60806040526004361061006d576000357c0100000000000000000000000000000000000000000000000000000000900463ffffffff1680630c4f65bd1461007257806320a47fe01461009d5780634ed3885e146100c85780636d4ce63c146100f15780639483cdd11461011c575b600080fd5b34801561007e57600080fd5b50610087610145565b6040516100949190610543565b60405180910390f35b3480156100a957600080fd5b506100b261016e565b6040516100bf9190610580565b60405180910390f35b3480156100d457600080fd5b506100ef60048036036100ea9190810190610417565b610178565b005b3480156100fd57600080fd5b506101066101ba565b604051610113919061055e565b60405180910390f35b34801561012857600080fd5b50610143600480360361013e9190810190610458565b6102a3565b005b60008060009054906101000a900473ffffffffffffffffffffffffffffffffffffffff16905090565b6000600154905090565b60028190806001815401808255809150509060018203906000526020600020016000909192909190915090805190602001906101b5929190610308565b505050565b60606002805480602002602001604051908101604052809291908181526020016000905b8282101561029a578382906000526020600020018054600181600116156101000203166002900480601f0160208091040260200160405190810160405280929190818152602001828054600181600116156101000203166002900480156102865780601f1061025b57610100808354040283529160200191610286565b820191906000526020600020905b81548152906001019060200180831161026957829003601f168201915b5050505050815260200190600101906101de565b50505050905090565b6000809054906101000a900473ffffffffffffffffffffffffffffffffffffffff1673ffffffffffffffffffffffffffffffffffffffff163373ffffffffffffffffffffffffffffffffffffffff161415156102fe57600080fd5b8060018190555050565b828054600181600116156101000203166002900490600052602060002090601f016020900481019282601f1061034957805160ff1916838001178555610377565b82800160010185558215610377579182015b8281111561037657825182559160200191906001019061035b565b5b5090506103849190610388565b5090565b6103aa91905b808211156103a657600081600090555060010161038e565b5090565b90565b600082601f83011215156103c057600080fd5b81356103d36103ce826105c8565b61059b565b915080825260208301602083018583830111156103ef57600080fd5b6103fa83828461066a565b50505092915050565b600061040f8235610660565b905092915050565b60006020828403121561042957600080fd5b600082013567ffffffffffffffff81111561044357600080fd5b61044f848285016103ad565b91505092915050565b60006020828403121561046a57600080fd5b600061047884828501610403565b91505092915050565b61048a81610624565b82525050565b600061049b82610601565b808452602084019350836020820285016104b4856105f4565b60005b848110156104ed5783830388526104cf8383516104fe565b92506104da82610617565b91506020880197506001810190506104b7565b508196508694505050505092915050565b60006105098261060c565b80845261051d816020860160208601610679565b610526816106ac565b602085010191505092915050565b61053d81610656565b82525050565b60006020820190506105586000830184610481565b92915050565b600060208201905081810360008301526105788184610490565b905092915050565b60006020820190506105956000830184610534565b92915050565b6000604051905081810181811067ffffffffffffffff821117156105be57600080fd5b8060405250919050565b600067ffffffffffffffff8211156105df57600080fd5b601f19601f8301169050602081019050919050565b6000602082019050919050565b600081519050919050565b600081519050919050565b6000602082019050919050565b600061062f82610636565b9050919050565b600073ffffffffffffffffffffffffffffffffffffffff82169050919050565b6000819050919050565b6000819050919050565b82818337600083830152505050565b60005b8381101561069757808201518184015260208101905061067c565b838111156106a6576000848401525b50505050565b6000601f19601f830116905091905056fea265627a7a72305820020a3131bbe57a502ce9147a239813c06aab94fdddd62ae58681b01d7e4e63896c6578706572696d656e74616cf50037",
  "source": "pragma solidity 0.5.0;\npragma experimental ABIEncoderV2;\n// Experimental (string[]) - Do not use experimental features on live deployments.\n\ncontract Patient {\n    address owner;\n    uint accessCode;\n    string[] fileHash;\n\n    constructor() public {\n        owner = msg.sender;\n        accessCode = 2255;\n\n    }\n\n    modifier onlyOwner() {\n        require(msg.sender == owner);\n        _;\n    }\n\n    function set(string memory _fileHash) public {\n        fileHash.push(_fileHash);\n    }\n\n    function get() public view returns (string[] memory) {\n        return fileHash;\n    }\n\n    function getAccessCode() public view returns (uint) {\n        return accessCode;\n    }\n\n    function getOwnerAddress() public view returns (address) {\n        return owner;\n    }\n\n    function changeAccessCode(uint _accessCode) public onlyOwner {\n        accessCode = _accessCode;\n    }\n}\n",
  "sourcePath": "/Users/vithu/Documents/projects/app-bhc/src/contracts/Patient.sol",
  "compiler": {
    "name": "solc",
    "version": "0.5.0+commit.1d4f565a.Emscripten.clang"
  },
  "schemaVersion": "3.0.1",
  "updatedAt": "2020-03-19T00:05:48.291Z",
  "devdoc": {
    "methods": {}
  },
  "userdoc": {
    "methods": {}
  }
}